:1000000006308A00932E0000FF00030E8301A1003A
:100010000A08A0008A010408A2007708A300780853
:10002000A4007908A5007A08A60003170D08031399
:10003000A70003170F080313A80003170C080313E6
:10004000A90003170E080313AA00831383128B1D44
:100050002B280B1852288C308400001C31280C18D7
:100060005528220884002308F7002408F8002508F2
:10007000F9002608FA00270803178D000313280843
:1000800003178F000313290803178C0003132A0892
:1000900003178E00031320088A00210E8300FF0E31
:1000A0007F0E09008A110A12D2288A110A129E288C
:1000B0000A108A100A118207F734C2347B34E13403
:1000C000A734EB34BD34F034CB34F334D334F534CB
:1000D0004734F7345E34F8343734F934E534F934DE
:1000E0007334FA34E934FA344E34FB34A334FB3439
:1000F000EE34FB342F34FC346834FC349B34FC3451
:10010000C934FC34F234FC34AC08031D8F282B08AE
:100110004A3C031C8F280130AB070318AC0A0800C7
:10012000AC08031D97282B080C3C03189D280130B0
:10013000AB020030031C0130AC020800B108031907
:10014000C928320BAC2884202B084B3C031DAB285C
:10015000AC080319B201B62890202B080C3C031DF3
:10016000B628AC08031DB6280130B20001303102B8
:10017000F7000310F70D7708D000770A5820FA002F
:1001800050085820D0008E017A088F0050088E0049
:10019000CE288E0175308F0030308E000C108A1101
:1001A0000A12312883160614831206188420831637
:1001B0008614831286189020831606158312061D56
:1001C000E7283108133C031CE7280130B1078316E8
:1001D00086158312861DF128B1080319F128013014
:1001E000B1020B108A110A12312841274726451DFA
:1001F0000000D622CC27C324D42C3A00D4224D2888
:100200004529412A5529451D0000831609108312EE
:100210000910831688018312380888008316091193
:100220008312091583160911831209110800831618
:1002300009118312091183160910831209108316FC
:100240008910831289103830B80005210930F70071
:10025000F70B28292B2900000F30B80005210130A9
:10026000B80005211430F700F70B342900000630E0
:10027000B80005218A110A12202F8E30F7003D08A0
:10028000F8003C08F900FA01F808031D5129790823
:10029000F800F9010830F702F808031D5129F701A9
:1002A00059290310F81B5829F90DF80DF7035129A6
:1002B000F81308003C0803191F2AC8004008031956
:1002C0001F2AC802031C69297F30C80703181F2A88
:1002D0006F298130C802031C1F2A03191F2A4808EE
:1002E000F700F801F901FA01C7013D08C600C61779
:1002F0003E08C5003F08C4001930C8004308C402C6
:10030000031892290130C50203189229C602031866
:100310009229C70203189229C70AC60AC50A4308C8
:10032000C407C4294208C5020318AD290130C6021A
:100330000318AD29C7020318AD29C70AC60A420827
:10034000C5074308C407031CC429C50A031DC429E3
:10035000C60A031DC429C70AC42941088038C60239
:100360000318C3290130C7020318C329C70A41086B
:100370008038C6074208C507031CA129C60A031D09
:10038000A129C70AA1297A14C80BC729D2290310A9
:10039000C40DC50DC60DC70D0310FA0DF90DF80DEE
:1003A000C90D7E29491CDA290310F80CF90CFA0C46
:1003B000C90CDD29F70303191F2AC91B062A0310DC
:1003C000C40DC50DC60DC70D4308C4020318F2299C
:1003D0000130C5020318F229C6020318F229C70228
:1003E000031C152A4208C5020318FD290130C60264
:1003F0000318FD29C702031C152A41088038C602CC
:100400000318062A0130C702031C152AFA0A031D25
:10041000152AF90A031D152AF80A031D152AF70AD9
:1004200003191F2AF80CF90CFA0C3D08C800410802
:10043000C806C81F1D2AF817232AF813232AF70114
:10044000F801F901FA01080040080319942AC800CC
:1004500044080319942AC8070318352A7F30C802B4
:10046000031C942A0319942A392A8130C8070318D7
:10047000942A4808F700F801F901FA014108CC0074
:10048000CC174208CB004308CA001830C800C90185
:100490004A1C622A4708FA07031C542AF90A031D5A
:1004A000542AF80A0319C9174608F907031C5B2ADE
:1004B000F80A0319C9174508C200C2174208F8070D
:1004C0000318C917C90DF80CF90CFA0CCC0CCB0C9D
:1004D000CA0C0310C80B472A0130F7070318942AE7
:1004E000F81B792ACC0DFA0DF90DF80DF703031955
:1004F000942ACC1F8A2AFA0A031D8A2AF90A031DA4
:100500008A2AF80A031D8A2AF80CF90CFA0CF70A51
:100510000319942A4108C9004508C906C91F922A2F
:10052000F817982AF813982AF701F801F901FA0147
:1005300008003D08C4004108C406C41FA42A0311D2
:100540000310BD1B0314D72A3D08C4004008C50092
:100550003C08C5020319B22AC41FD72A0308013A6E
:100560008300D72A4108C5003D08C5020319BE2AE9
:10057000C41FD72A0308013A8300D72A4208C500BE
:100580003E08C5020319CA2AC41FD72A0308013A24
:100590008300D72A4308C5003F08C5020319D62A9D
:1005A000C41FD72A0308013A8300D72A0310080082
:1005B0002C08BD002B08BC003D217A08BB0079083F
:1005C000BA007808B9007708B8003B08BF003A08BD
:1005D000BE003908BD003808BC001430C300AE307E
:1005E000C2004730C1008130C0005A217A08BF00E4
:1005F0007908BE007808BD007708BC0083143F0866
:10060000C3003E08C2003D08C1003C08C000C7014D
:10061000C601C5018030C40080308318C506CA01F8
:10062000CB014108C9004508C90640080319FC2B45
:10063000C800F70044080319052CC8020319A12BB0
:10064000031C5F2B4508CE00CE174608CD00470897
:10065000CC00CB010310CE0CCD0CCC0CCB0CC80BBA
:10066000292BC91F362B4A14192C4A1048104A1638
:100670004330840083132E2C4A12C91B492B481C7B
:10068000542BCE0CCD0CCC0CCB0CF70A0319142C2C
:10069000542BCE1B572B0310CB0DCC0DCD0DCE0DF7
:1006A000F7030319142C492B4A17C12B4A1341088D
:1006B000C900C91F5D2BCE170D2CCE130D2C44087D
:1006C000C800F7004008C8024108CE00CE17420813
:1006D000CD004308CC00CB010310CE0CCD0CCC0CCC
:1006E000CB0CC80B6B2BC91F782BCA14192CCA1042
:1006F0004810CA164730840083132E2CCA12C91B17
:100700008B2B481C962BCE0CCD0CCC0CCB0CF70AAB
:100710000319142C962BCE1B992B0310CB0DCC0D4B
:10072000CD0DCE0DF7030319142C8B2BCA17C12B3B
:10073000CA134508C900C91F9F2BCE170D2CCE1315
:100740000D2C4508CE00CE174608CD004708CC003A
:10075000C91FAE2BCE134A15192C4A11CB014810D4
:100760004330840083132E2CC91BD72B4108C900AA
:10077000481CC12BCE0CCD0CCC0CCB0CF70A0319AA
:10078000142CCB1FD22BCC0A031DD22BCD0A031D58
:10079000D22BCE0A031DD22BCE0CCD0CCC0CF70ADB
:1007A0000319142C4A1B562BCA1B982BF62B80308E
:1007B000CE06CE1FDF2B192C4508C900EC2B4108B3
:1007C000C900CE08031DEC2BCD08031DEC2BCC0873
:1007D000031DEC2BF7010D2CCE1BF62B0310CB0DBC
:1007E000CC0DCD0DCE0DF70BEC2B142CC91FFA2B15
:1007F000CE170D2CCE130D2C4408F7004508CE0063
:100800004608CD004708CC000D2C4008F7004108F1
:10081000CE004208CD004308CC004E08F8004D0839
:10082000F9004C08FA004C2CF701F801F901FA0123
:100830004C2CCB01CC09CD09CE09CB09CB0A031D29
:10084000272CCC0A031D272CCD0A0319CE0A4A18DF
:10085000352BCA18772B4A19AD2BDC2B0008CC0797
:10086000031C382CCD0A031D382CCE0A031948145A
:1008700084030008CD07031C402CCE0A031948143A
:1008800084030008801F803ACE07031848144A1AD0
:100890003C2BCA1A7E2BB42B7A08BF007908BE0005
:1008A0007808BD007708BC007A08C3007908C20048
:1008B0007808C1007708C000C701C6011030C50024
:1008C0008330C40024227A08B0007908AF00780889
:1008D000AE007708AD003008BF002F08BE002E081C
:1008E000BD002D08BC00C301C201C101C001992295
:1008F000031C7E2CB001AF01AE01AD01BF01BE01F2
:100900003430BD008630BC003008C3002F08C20060
:100910002E08C1002D08C0009922031C952CB0019F
:10092000AF013430AE008630AD008A110A12342F88
:100930009F149F18992C1E08FA0083161E08831214
:10094000BC001E08BD003D217A08B6007908B5003C
:100950007808B4007708B3003608BF003508BE0039
:100960003408BD003308BC00AA30C300F130C20017
:100970000230C1008030C0005A217A08B6007908E0
:10098000B5007808B4007708B3008A110A12352F31
:1009900083160910831209148316880183123B08F9
:1009A0008800831609118312091583160911831211
:1009B000091108000B08B8008B13831603178C1756
:1009C0000C140000000083120313B81B8B170317CD
:1009D0000C087F3903192E2D0313B80003170D08D7
:1009E0000313B90003170F080313BA003808BB003C
:1009F000C824390803178D0003133A0803178F0022
:100A000003130B08BB008B13831603178C170C14EE
:100A10000000000083120313BB1B8B1703170C0D80
:100A20000E0D7F3903192E2D0313B80003170D087F
:100A30000313B90003170F080313BA003808BB00EB
:100A4000C824390803178D0003133A0803178F00D1
:100A50008D0A03198F0A0313DA2C031703130800F6
:100A60008E30F7003808F7023908F9003A08F80024
:100A7000F917F7080319472D0310F908031D432D33
:100A8000F8080319472DF90CF80CF70B3C2DB91F8A
:100A90004E2DF809F909F80A0319F90A08003A086D
:100AA000F80139020318572D3908F700632DF701B3
:100AB0000830BB00B90DF70D3A0877020318F700AC
:100AC000F80DBB0B5A2D08008030B8000521F53019
:100AD00003178D0000308F000313DA248D30B80027
:100AE00005213008BB002F08BA002E08B9002D08D8
:100AF000B80030257808B9006430BA004F2578086E
:100B0000B9000A30BA004F2530307707B8003808EE
:100B1000BB00C8248E30B80005213008BB002F0868
:100B2000BA002E08B9002D08B80030257808B900A1
:100B30000A30BA004F257808B9000A30BA004F25AC
:100B400030307707B8003808BB00C8248F30B800B1
:100B500005213008BB002F08BA002E08B9002D0867
:100B6000B80030257808B9000A30BA004F25303077
:100B70007707B8003808BB00C8249030B8000521BA
:100B80002E30BB00C8249130B80005213008C300C6
:100B90002F08C2002E08C1002D08C000C701C601E1
:100BA0002030C5008230C40024227A08BB007908B6
:100BB000BA007808B9007708B80030257808B9007D
:100BC0000A30BA004F2530307707B8003808BB002C
:100BD000C824C030B8000521F93003178D0000305B
:100BE0008F000313DA24CD30B80005213108B90095
:100BF0006430BA004F257808B9000A30BA004F2592
:100C000030307707B8003808BB00C824CE30B800B1
:100C100005213108B9000A30BA004F257808B9001B
:100C20000A30BA004F2530307707B8003808BB00CB
:100C3000C824CF30B80005213108B9000A30BA0005
:100C40004F2530307707B8003808BB00C8249430EF
:100C5000B8000521FE3003178D0000308F0003130C
:100C6000DA24A130B80005213608BB003508BA00E7
:100C70003408B9003308B80030257808B9000A30C4
:100C8000BA004F257808B9000A30BA004F25303035
:100C90007707B8003808BB00C824A230B800052187
:100CA0003608BB003508BA003408B9003308B8006C
:100CB00030257808B9000A30BA004F253030770760
:100CC000B8003808BB00C824A330B80005212E3076
:100CD000BB00C824A430B80005213608C30035087D
:100CE000C2003408C1003308C000C701C60120306B
:100CF000C5008230C40024227A08BB007908BA00FB
:100D00007808B9007708B80030257808B9000A30AB
:100D1000BA004F2530307707B8003808BB00C82428
:100D20008A110A12362F03081F398300AC011D30C7
:100D3000AB00B001AF01AE01AD01B1010130B200B5
:100D4000FF30B700831603170908C0398900031361
:100D50001F129F1200300317880083128701880139
:100D6000890183131130831603138F0090010F083C
:100D70000530831290008E01EA308F0060308E00C3
:100D80000030831687008312B700FF30831685007A
:100D90008600C03083128B048B15831616148312C1
:100DA0008B158316961483128B15831616158312D2
:100DB0008B15831696150C1483121F179F13831619
:100DC0009F1783121F14831603170908C03989005F
:100DD00003131F129F120130031788000030F80020
:100DE000831203131F08C33978049F003711370893
:100DF00083168700831207110C30970083169B011E
:100E00009C0101309D000030F800053883129200EB
:100E10009B308316920083122C08F9002B08F800EF
:100E2000F90CF80CF90CF80CF90C78089500F90C91
:100E3000790C3039F7001708CF3977049700172954
:100E40002C08F9002B08F800F90CF80CF90CF80C38
:100E5000F90C78089500F90C790C3039F70017086F
:100E6000CF3977049700D82A982C642D202F63005F
:04400E00E72FFF3F5A
:00000001FF
;PIC16F887
;CRC=F8F4  CREATED="13-Jun-22 21:50"
